{
  "_format": "hh-sol-artifact-1",
  "contractName": "CertificateVerifier",
  "sourceName": "contracts/Certificate.sol",
  "abi": [
    {
      "inputs": [],
      "stateMutability": "nonpayable",
      "type": "constructor"
    },
    {
      "inputs": [
        {
          "internalType": "bytes32",
          "name": "",
          "type": "bytes32"
        }
      ],
      "name": "certificates",
      "outputs": [
        {
          "internalType": "string",
          "name": "studentName",
          "type": "string"
        },
        {
          "internalType": "string",
          "name": "course",
          "type": "string"
        },
        {
          "internalType": "string",
          "name": "ipfsHash",
          "type": "string"
        },
        {
          "internalType": "uint256",
          "name": "timestamp",
          "type": "uint256"
        },
        {
          "internalType": "bool",
          "name": "isValid",
          "type": "bool"
        }
      ],
      "stateMutability": "view",
      "type": "function"
    },
    {
      "inputs": [
        {
          "internalType": "string",
          "name": "_name",
          "type": "string"
        },
        {
          "internalType": "string",
          "name": "_course",
          "type": "string"
        },
        {
          "internalType": "string",
          "name": "_ipfs",
          "type": "string"
        },
        {
          "internalType": "bytes32",
          "name": "_certId",
          "type": "bytes32"
        }
      ],
      "name": "issueCertificate",
      "outputs": [],
      "stateMutability": "nonpayable",
      "type": "function"
    },
    {
      "inputs": [],
      "name": "owner",
      "outputs": [
        {
          "internalType": "address",
          "name": "",
          "type": "address"
        }
      ],
      "stateMutability": "view",
      "type": "function"
    },
    {
      "inputs": [
        {
          "internalType": "bytes32",
          "name": "_certId",
          "type": "bytes32"
        }
      ],
      "name": "verify",
      "outputs": [
        {
          "internalType": "string",
          "name": "",
          "type": "string"
        },
        {
          "internalType": "string",
          "name": "",
          "type": "string"
        },
        {
          "internalType": "string",
          "name": "",
          "type": "string"
        },
        {
          "internalType": "bool",
          "name": "",
          "type": "bool"
        }
      ],
      "stateMutability": "view",
      "type": "function"
    }
  ],
  "bytecode": "0x608060405234801561001057600080fd5b5033600160006101000a81548173ffffffffffffffffffffffffffffffffffffffff021916908373ffffffffffffffffffffffffffffffffffffffff160217905550610f18806100616000396000f3fe608060405234801561001057600080fd5b506004361061004c5760003560e01c80635f2a4cda14610051578063742f06881461006d57806375e36616146100a15780638da5cb5b146100d4575b600080fd5b61006b6004803603810190610066919061084d565b6100f2565b005b61008760048036038101906100829190610908565b610296565b6040516100989594939291906109e8565b60405180910390f35b6100bb60048036038101906100b69190610908565b610471565b6040516100cb9493929190610a50565b60405180910390f35b6100dc610697565b6040516100e99190610aeb565b60405180910390f35b600160009054906101000a900473ffffffffffffffffffffffffffffffffffffffff1673ffffffffffffffffffffffffffffffffffffffff163373ffffffffffffffffffffffffffffffffffffffff1614610182576040517f08c379a000000000000000000000000000000000000000000000000000000000815260040161017990610b52565b60405180910390fd5b60008082815260200190815260200160002060040160009054906101000a900460ff16156101e5576040517f08c379a00000000000000000000000000000000000000000000000000000000081526004016101dc90610be4565b60405180910390fd5b6040518060a001604052808581526020018481526020018381526020014281526020016001151581525060008083815260200190815260200160002060008201518160000190816102369190610e10565b50602082015181600101908161024c9190610e10565b5060408201518160020190816102629190610e10565b506060820151816003015560808201518160040160006101000a81548160ff02191690831515021790555090505050505050565b60006020528060005260406000206000915090508060000180546102b990610c33565b80601f01602080910402602001604051908101604052809291908181526020018280546102e590610c33565b80156103325780601f1061030757610100808354040283529160200191610332565b820191906000526020600020905b81548152906001019060200180831161031557829003601f168201915b50505050509080600101805461034790610c33565b80601f016020809104026020016040519081016040528092919081815260200182805461037390610c33565b80156103c05780601f10610395576101008083540402835291602001916103c0565b820191906000526020600020905b8154815290600101906020018083116103a357829003601f168201915b5050505050908060020180546103d590610c33565b80601f016020809104026020016040519081016040528092919081815260200182805461040190610c33565b801561044e5780601f106104235761010080835404028352916020019161044e565b820191906000526020600020905b81548152906001019060200180831161043157829003601f168201915b5050505050908060030154908060040160009054906101000a900460ff16905085565b60608060606000806000808781526020019081526020016000206040518060a00160405290816000820180546104a690610c33565b80601f01602080910402602001604051908101604052809291908181526020018280546104d290610c33565b801561051f5780601f106104f45761010080835404028352916020019161051f565b820191906000526020600020905b81548152906001019060200180831161050257829003601f168201915b5050505050815260200160018201805461053890610c33565b80601f016020809104026020016040519081016040528092919081815260200182805461056490610c33565b80156105b15780601f10610586576101008083540402835291602001916105b1565b820191906000526020600020905b81548152906001019060200180831161059457829003601f168201915b505050505081526020016002820180546105ca90610c33565b80601f01602080910402602001604051908101604052809291908181526020018280546105f690610c33565b80156106435780601f1061061857610100808354040283529160200191610643565b820191906000526020600020905b81548152906001019060200180831161062657829003601f168201915b50505050508152602001600382015481526020016004820160009054906101000a900460ff161515151581525050905080600001518160200151826040015183608001519450945094509450509193509193565b600160009054906101000a900473ffffffffffffffffffffffffffffffffffffffff1681565b6000604051905090565b600080fd5b600080fd5b600080fd5b600080fd5b6000601f19601f8301169050919050565b7f4e487b7100000000000000000000000000000000000000000000000000000000600052604160045260246000fd5b610724826106db565b810181811067ffffffffffffffff82111715610743576107426106ec565b5b80604052505050565b60006107566106bd565b9050610762828261071b565b919050565b600067ffffffffffffffff821115610782576107816106ec565b5b61078b826106db565b9050602081019050919050565b82818337600083830152505050565b60006107ba6107b584610767565b61074c565b9050828152602081018484840111156107d6576107d56106d6565b5b6107e1848285610798565b509392505050565b600082601f8301126107fe576107fd6106d1565b5b813561080e8482602086016107a7565b91505092915050565b6000819050919050565b61082a81610817565b811461083557600080fd5b50565b60008135905061084781610821565b92915050565b60008060008060808587031215610867576108666106c7565b5b600085013567ffffffffffffffff811115610885576108846106cc565b5b610891878288016107e9565b945050602085013567ffffffffffffffff8111156108b2576108b16106cc565b5b6108be878288016107e9565b935050604085013567ffffffffffffffff8111156108df576108de6106cc565b5b6108eb878288016107e9565b92505060606108fc87828801610838565b91505092959194509250565b60006020828403121561091e5761091d6106c7565b5b600061092c84828501610838565b91505092915050565b600081519050919050565b600082825260208201905092915050565b60005b8381101561096f578082015181840152602081019050610954565b60008484015250505050565b600061098682610935565b6109908185610940565b93506109a0818560208601610951565b6109a9816106db565b840191505092915050565b6000819050919050565b6109c7816109b4565b82525050565b60008115159050919050565b6109e2816109cd565b82525050565b600060a0820190508181036000830152610a02818861097b565b90508181036020830152610a16818761097b565b90508181036040830152610a2a818661097b565b9050610a3960608301856109be565b610a4660808301846109d9565b9695505050505050565b60006080820190508181036000830152610a6a818761097b565b90508181036020830152610a7e818661097b565b90508181036040830152610a92818561097b565b9050610aa160608301846109d9565b95945050505050565b600073ffffffffffffffffffffffffffffffffffffffff82169050919050565b6000610ad582610aaa565b9050919050565b610ae581610aca565b82525050565b6000602082019050610b006000830184610adc565b92915050565b7f4f6e6c7920636f6c6c6567652061646d696e2063616e20697373756500000000600082015250565b6000610b3c601c83610940565b9150610b4782610b06565b602082019050919050565b60006020820190508181036000830152610b6b81610b2f565b9050919050565b7f4572726f723a20436572746966696361746520494420616c726561647920657860008201527f6973747321000000000000000000000000000000000000000000000000000000602082015250565b6000610bce602583610940565b9150610bd982610b72565b604082019050919050565b60006020820190508181036000830152610bfd81610bc1565b9050919050565b7f4e487b7100000000000000000000000000000000000000000000000000000000600052602260045260246000fd5b60006002820490506001821680610c4b57607f821691505b602082108103610c5e57610c5d610c04565b5b50919050565b60008190508160005260206000209050919050565b60006020601f8301049050919050565b600082821b905092915050565b600060088302610cc67fffffffffffffffffffffffffffffffffffffffffffffffffffffffffffffffff82610c89565b610cd08683610c89565b95508019841693508086168417925050509392505050565b6000819050919050565b6000610d0d610d08610d03846109b4565b610ce8565b6109b4565b9050919050565b6000819050919050565b610d2783610cf2565b610d3b610d3382610d14565b848454610c96565b825550505050565b600090565b610d50610d43565b610d5b818484610d1e565b505050565b5b81811015610d7f57610d74600082610d48565b600181019050610d61565b5050565b601f821115610dc457610d9581610c64565b610d9e84610c79565b81016020851015610dad578190505b610dc1610db985610c79565b830182610d60565b50505b505050565b600082821c905092915050565b6000610de760001984600802610dc9565b1980831691505092915050565b6000610e008383610dd6565b9150826002028217905092915050565b610e1982610935565b67ffffffffffffffff811115610e3257610e316106ec565b5b610e3c8254610c33565b610e47828285610d83565b600060209050601f831160018114610e7a5760008415610e68578287015190505b610e728582610df4565b865550610eda565b601f198416610e8886610c64565b60005b82811015610eb057848901518255600182019150602085019450602081019050610e8b565b86831015610ecd5784890151610ec9601f891682610dd6565b8355505b6001600288020188555050505b50505050505056fea2646970667358221220c51b5b998e5f8de68cfd3452b61cd5bef05b9efb49e4bd78cb5e194554736db864736f6c63430008130033",
  "linkReferences": {},
  "deployedLinkReferences": {}
}